:100000000C9434000C9446000C9446000C9446006A
:100010000C9446000C9446000C9446000C94460048
:100020000C9446000C9446000C9446000C94460038
:100030000C9446000C9446000C9446000C94460028
:100040000C9446000C9446000C9446000C94460018
:100050000C9446000C9446000C9446000C94460008
:100060000C9446000C94460011241FBECFEFD4E040
:10007000DEBFCDBF11E0A0E0B1E001C01D92A23013
:10008000B107E1F70E9463010C941C020C9400007C
:1000900015B814B818B817B882E08093B100089565
:1000A000FC0160E071E00E94F5019B0180E090E0BE
:1000B00006C0B89A1092B200B89BFECF0196821784
:1000C0009307BCF3B89A80E09FEFAC01249FC00176
:1000D000259F900D349F900D11248E0F9F1F8195A9
:1000E0008093B200B89BFECF0895CF93DF93EC01CD
:1000F00011C08AEF90E00E9450008AEF90E00E94C9
:1001000050008AEF90E00E9450008AEF90E00E9439
:1001100050002197209769F7DF91CF910895282FFC
:1001200090910001891731F080910101281721F485
:100130009093010110920001322F3154363060F457
:1001400027B181E090E002C0880F991F3A95E2F74D
:100150008095822387B9089544B1232F30E026503B
:10016000304081E090E002C0880F991F2A95E2F7A5
:100170008095842384B908951F93182F80910001DE
:10018000882311F00E948F0080910101809300016B
:1001900010930101312F3154363058F427B181E0EA
:1001A00090E002C0880F991F3A95E2F7282B27B9F3
:1001B0000EC044B1232F30E02650304081E090E063
:1001C00002C0880F991F2A95E2F7482B44B91F9166
:1001D0000895AF92BF92DF92EF92FF920F931F9319
:1001E000CF93DF93D82E7B01AA24BB24A61AB70A8B
:1001F000C0E0D0E000E117E28D2D0E94BC00CE01EE
:100200008C599F4F0E9450008D2D0E948F00C80175
:100210000E945000CE0DDF1D0A0D1B1D87E2C0316C
:10022000D80754F3C0E0D0E004E717E28D2D0E9418
:10023000BC00C8010E9450008D2D0E948F00CE018D
:100240008C599F4F0E945000CE0DDF1D0A0D1B1DC3
:1002500087E2C031D80754F3DF91CF911F910F91FE
:10026000FF90EF90DF90BF90AF9008951F93CF93D2
:10027000DF932DE78130920714F080E09DE711E4D1
:10028000C4E6DDE7C81BD90B812F0E94BC00CE015C
:100290000E9450001F5F1834B9F7812F0E94BC00E4
:1002A000CE010E94500011501034B9F782E40E9430
:1002B0008F00CE010E94500081E40E948F00DF91E8
:1002C000CF911F910895CF93DF9315B814B818B844
:1002D00017B882E08093B10088E893E181C081E49F
:1002E0006DE770E00E94E90084E690E00E947500EE
:1002F0002196C430D1059CF3C0E1D7E2CE010E9423
:100300003601C851DC4F81E6C83AD807B9F7CE01AB
:100310000E943601C853DF4F8DE7C030D807B9F7C8
:10032000C0E0D0E080E09DE70E943601219686E0A3
:10033000C034D807B9F7C0E0D0E086E40E94BC0022
:1003400084E190E00E94750082E40E94BC0084E198
:1003500090E00E94750088E40E94BC0084E190E077
:100360000E94750085E40E94BC0084E190E00E9438
:10037000750083E40E94BC0084E190E00E94750057
:1003800081E40E94BC0084E190E00E94750084E456
:100390000E94BC0084E190E00E94750087E40E9406
:1003A000BC0084E190E00E9475002196CF30D10519
:1003B00021F684E40E948F0087E40E948F00C0E051
:1003C000D0E081E46AEF70E00E94E90084E690E00A
:1003D0000E9475002196C430D10599F788EE93E00C
:1003E0000E947500C0E0D0E084CF97FB092E07265D
:1003F0000AD077FD04D00CD006D000201AF47095F6
:1004000061957F4F0895F6F7909581959F4F0895D8
:10041000AA1BBB1B51E107C0AA1FBB1FA617B7072A
:1004200010F0A61BB70B881F991F5A95A9F7809546
:0C0430009095BC01CD010895F894FFCF19
:00000001FF
